{
  "contractName": "BillingVerification",
  "abi": [
    {
      "inputs": [
        {
          "internalType": "address",
          "name": "",
          "type": "address"
        },
        {
          "internalType": "uint256",
          "name": "",
          "type": "uint256"
        }
      ],
      "name": "bills",
      "outputs": [
        {
          "internalType": "uint256",
          "name": "estimatedCost",
          "type": "uint256"
        },
        {
          "internalType": "uint256",
          "name": "hospitalCost",
          "type": "uint256"
        },
        {
          "internalType": "bool",
          "name": "verified",
          "type": "bool"
        }
      ],
      "stateMutability": "view",
      "type": "function",
      "constant": true
    },
    {
      "inputs": [
        {
          "internalType": "uint256",
          "name": "_estimatedCost",
          "type": "uint256"
        },
        {
          "internalType": "uint256",
          "name": "_hospitalCost",
          "type": "uint256"
        }
      ],
      "name": "verifyBill",
      "outputs": [],
      "stateMutability": "nonpayable",
      "type": "function"
    },
    {
      "inputs": [
        {
          "internalType": "address",
          "name": "_user",
          "type": "address"
        }
      ],
      "name": "getBills",
      "outputs": [
        {
          "components": [
            {
              "internalType": "uint256",
              "name": "estimatedCost",
              "type": "uint256"
            },
            {
              "internalType": "uint256",
              "name": "hospitalCost",
              "type": "uint256"
            },
            {
              "internalType": "bool",
              "name": "verified",
              "type": "bool"
            }
          ],
          "internalType": "struct BillingVerification.Bill[]",
          "name": "",
          "type": "tuple[]"
        }
      ],
      "stateMutability": "view",
      "type": "function",
      "constant": true
    }
  ],
  "bytecode": "0x608060405234801561001057600080fd5b506105a8806100206000396000f3fe608060405234801561001057600080fd5b50600436106100415760003560e01c806316a350b61461004657806345a132aa146100625780638f6fa0b214610092575b600080fd5b610060600480360381019061005b919061033a565b6100c4565b005b61007c600480360381019061007791906102d5565b61018b565b604051610089919061046a565b60405180910390f35b6100ac60048036038101906100a791906102fe565b610257565b6040516100bb9392919061048c565b60405180910390f35b60008282111590506000803373ffffffffffffffffffffffffffffffffffffffff1673ffffffffffffffffffffffffffffffffffffffff16815260200190815260200160002060405180606001604052808581526020018481526020018315158152509080600181540180825580915050600190039060005260206000209060030201600090919091909150600082015181600001556020820151816001015560408201518160020160006101000a81548160ff0219169083151502179055505050505050565b60606000808373ffffffffffffffffffffffffffffffffffffffff1673ffffffffffffffffffffffffffffffffffffffff168152602001908152602001600020805480602002602001604051908101604052809291908181526020016000905b8282101561024c578382906000526020600020906003020160405180606001604052908160008201548152602001600182015481526020016002820160009054906101000a900460ff161515151581525050815260200190600101906101eb565b505050509050919050565b6000602052816000526040600020818154811061027357600080fd5b9060005260206000209060030201600091509150508060000154908060010154908060020160009054906101000a900460ff16905083565b6000813590506102ba81610544565b92915050565b6000813590506102cf8161055b565b92915050565b6000602082840312156102e757600080fd5b60006102f5848285016102ab565b91505092915050565b6000806040838503121561031157600080fd5b600061031f858286016102ab565b9250506020610330858286016102c0565b9150509250929050565b6000806040838503121561034d57600080fd5b600061035b858286016102c0565b925050602061036c858286016102c0565b9150509250929050565b6000610382838361040a565b60608301905092915050565b6000610399826104d3565b6103a381856104eb565b93506103ae836104c3565b8060005b838110156103df5781516103c68882610376565b97506103d1836104de565b9250506001810190506103b2565b5085935050505092915050565b6103f58161050e565b82525050565b6104048161050e565b82525050565b606082016000820151610420600085018261044c565b506020820151610433602085018261044c565b50604082015161044660408501826103ec565b50505050565b6104558161053a565b82525050565b6104648161053a565b82525050565b60006020820190508181036000830152610484818461038e565b905092915050565b60006060820190506104a1600083018661045b565b6104ae602083018561045b565b6104bb60408301846103fb565b949350505050565b6000819050602082019050919050565b600081519050919050565b6000602082019050919050565b600082825260208201905092915050565b60006105078261051a565b9050919050565b60008115159050919050565b600073ffffffffffffffffffffffffffffffffffffffff82169050919050565b6000819050919050565b61054d816104fc565b811461055857600080fd5b50565b6105648161053a565b811461056f57600080fd5b5056fea264697066735822122066d5a0b8b1a3588068a334f14f36513408921a53aacbba86f3a1ecd97a5ccd3264736f6c63430008000033",
  "immutableReferences": {},
  "source": "pragma solidity ^0.8.0;\r\n\r\ncontract BillingVerification {\r\n    struct Bill {\r\n        uint256 estimatedCost;\r\n        uint256 hospitalCost;\r\n        bool verified;\r\n    }\r\n\r\n    mapping(address => Bill[]) public bills;\r\n\r\n    function verifyBill(uint256 _estimatedCost, uint256 _hospitalCost) public {\r\n        bool isVerified = _hospitalCost <= _estimatedCost;\r\n        bills[msg.sender].push(Bill(_estimatedCost, _hospitalCost, isVerified));\r\n    }\r\n\r\n    function getBills(address _user) public view returns (Bill[] memory) {\r\n        return bills[_user];\r\n    }\r\n}",
  "sourcePath": "C:\\Users\\Sai Divya\\Desktop\\SAI\\Healthcare_blockchain\\BACKEND\\contracts\\BillingVerification.sol",
  "compiler": {
    "name": "solc",
    "version": "0.8.0+commit.c7dfd78e.Emscripten.clang"
  },
  "schemaVersion": "3.4.16",
  "updatedAt": "2025-05-24T01:11:22.964Z",
  "networkType": "ethereum",
  "devdoc": {
    "kind": "dev",
    "methods": {},
    "version": 1
  },
  "userdoc": {
    "kind": "user",
    "methods": {},
    "version": 1
  }
}