{
  "contractName": "DoctorVerification",
  "abi": [
    {
      "anonymous": false,
      "inputs": [
        {
          "indexed": false,
          "internalType": "string",
          "name": "licenseNumber",
          "type": "string"
        },
        {
          "indexed": false,
          "internalType": "uint256",
          "name": "timestamp",
          "type": "uint256"
        }
      ],
      "name": "DoctorVerified",
      "type": "event"
    },
    {
      "anonymous": false,
      "inputs": [
        {
          "indexed": false,
          "internalType": "string",
          "name": "doctorLicense",
          "type": "string"
        },
        {
          "indexed": false,
          "internalType": "string",
          "name": "patientAadhaar",
          "type": "string"
        },
        {
          "indexed": false,
          "internalType": "uint256",
          "name": "timestamp",
          "type": "uint256"
        }
      ],
      "name": "RecordAccessed",
      "type": "event"
    },
    {
      "inputs": [
        {
          "internalType": "string",
          "name": "",
          "type": "string"
        },
        {
          "internalType": "uint256",
          "name": "",
          "type": "uint256"
        }
      ],
      "name": "accessRecords",
      "outputs": [
        {
          "internalType": "string",
          "name": "patientAadhaar",
          "type": "string"
        },
        {
          "internalType": "string",
          "name": "doctorLicense",
          "type": "string"
        },
        {
          "internalType": "uint256",
          "name": "timestamp",
          "type": "uint256"
        },
        {
          "internalType": "string",
          "name": "reason",
          "type": "string"
        }
      ],
      "stateMutability": "view",
      "type": "function",
      "constant": true
    },
    {
      "inputs": [
        {
          "internalType": "string",
          "name": "",
          "type": "string"
        }
      ],
      "name": "doctors",
      "outputs": [
        {
          "internalType": "string",
          "name": "licenseNumber",
          "type": "string"
        },
        {
          "internalType": "string",
          "name": "idPhotoHash",
          "type": "string"
        },
        {
          "internalType": "string",
          "name": "livePhotoHash",
          "type": "string"
        },
        {
          "internalType": "bool",
          "name": "isVerified",
          "type": "bool"
        },
        {
          "internalType": "uint256",
          "name": "verificationTimestamp",
          "type": "uint256"
        }
      ],
      "stateMutability": "view",
      "type": "function",
      "constant": true
    },
    {
      "inputs": [
        {
          "internalType": "string",
          "name": "_licenseNumber",
          "type": "string"
        },
        {
          "internalType": "string",
          "name": "_idPhotoHash",
          "type": "string"
        },
        {
          "internalType": "string",
          "name": "_livePhotoHash",
          "type": "string"
        }
      ],
      "name": "verifyDoctor",
      "outputs": [],
      "stateMutability": "nonpayable",
      "type": "function"
    },
    {
      "inputs": [
        {
          "internalType": "string",
          "name": "_doctorLicense",
          "type": "string"
        },
        {
          "internalType": "string",
          "name": "_patientAadhaar",
          "type": "string"
        },
        {
          "internalType": "string",
          "name": "_reason",
          "type": "string"
        }
      ],
      "name": "recordAccess",
      "outputs": [],
      "stateMutability": "nonpayable",
      "type": "function"
    }
  ],
  "bytecode": "0x608060405234801561001057600080fd5b50610db5806100206000396000f3fe608060405234801561001057600080fd5b506004361061004c5760003560e01c806305c35ce5146100515780631dd1463114610085578063c568ae0d146100b8578063c599b111146100d4575b600080fd5b61006b60048036038101906100669190610885565b6100f0565b60405161007c959493929190610a90565b60405180910390f35b61009f600480360381019061009a919061095d565b6102e1565b6040516100af9493929190610b3d565b60405180910390f35b6100d260048036038101906100cd91906108c6565b6104dc565b005b6100ee60048036038101906100e991906108c6565b6105e6565b005b60008180516020810182018051848252602083016020850120818352809550505050505060009150905080600001805461012990610cc7565b80601f016020809104026020016040519081016040528092919081815260200182805461015590610cc7565b80156101a25780601f10610177576101008083540402835291602001916101a2565b820191906000526020600020905b81548152906001019060200180831161018557829003601f168201915b5050505050908060010180546101b790610cc7565b80601f01602080910402602001604051908101604052809291908181526020018280546101e390610cc7565b80156102305780601f1061020557610100808354040283529160200191610230565b820191906000526020600020905b81548152906001019060200180831161021357829003601f168201915b50505050509080600201805461024590610cc7565b80601f016020809104026020016040519081016040528092919081815260200182805461027190610cc7565b80156102be5780601f10610293576101008083540402835291602001916102be565b820191906000526020600020905b8154815290600101906020018083116102a157829003601f168201915b5050505050908060030160009054906101000a900460ff16908060040154905085565b600182805160208101820180518482526020830160208501208183528095505050505050818154811061031357600080fd5b90600052602060002090600402016000915091505080600001805461033790610cc7565b80601f016020809104026020016040519081016040528092919081815260200182805461036390610cc7565b80156103b05780601f10610385576101008083540402835291602001916103b0565b820191906000526020600020905b81548152906001019060200180831161039357829003601f168201915b5050505050908060010180546103c590610cc7565b80601f01602080910402602001604051908101604052809291908181526020018280546103f190610cc7565b801561043e5780601f106104135761010080835404028352916020019161043e565b820191906000526020600020905b81548152906001019060200180831161042157829003601f168201915b50505050509080600201549080600301805461045990610cc7565b80601f016020809104026020016040519081016040528092919081815260200182805461048590610cc7565b80156104d25780601f106104a7576101008083540402835291602001916104d2565b820191906000526020600020905b8154815290600101906020018083116104b557829003601f168201915b5050505050905084565b6040518060a00160405280848152602001838152602001828152602001600115158152602001428152506000846040516105169190610a79565b90815260200160405180910390206000820151816000019080519060200190610540929190610765565b50602082015181600101908051906020019061055d929190610765565b50604082015181600201908051906020019061057a929190610765565b5060608201518160030160006101000a81548160ff021916908315150217905550608082015181600401559050507ff114d33935983577220079b34aa86f67e816335818ab71ad70b2e28c215736ea83426040516105d9929190610b97565b60405180910390a1505050565b6000836040516105f69190610a79565b908152602001604051809103902060030160009054906101000a900460ff16610654576040517f08c379a000000000000000000000000000000000000000000000000000000000815260040161064b90610bc7565b60405180910390fd5b600060405180608001604052808481526020018581526020014281526020018381525090506001836040516106899190610a79565b908152602001604051809103902081908060018154018082558091505060019003906000526020600020906004020160009091909190915060008201518160000190805190602001906106dd929190610765565b5060208201518160010190805190602001906106fa929190610765565b50604082015181600201556060820151816003019080519060200190610721929190610765565b5050507f7aa6e3d8faae71f9be88d74293e354f3731ba2cbee39db92fd82d37a35e08d3a84844260405161075793929190610af8565b60405180910390a150505050565b82805461077190610cc7565b90600052602060002090601f01602090048101928261079357600085556107da565b82601f106107ac57805160ff19168380011785556107da565b828001600101855582156107da579182015b828111156107d95782518255916020019190600101906107be565b5b5090506107e791906107eb565b5090565b5b808211156108045760008160009055506001016107ec565b5090565b600061081b61081684610c18565b610be7565b90508281526020810184848401111561083357600080fd5b61083e848285610c85565b509392505050565b600082601f83011261085757600080fd5b8135610867848260208601610808565b91505092915050565b60008135905061087f81610d68565b92915050565b60006020828403121561089757600080fd5b600082013567ffffffffffffffff8111156108b157600080fd5b6108bd84828501610846565b91505092915050565b6000806000606084860312156108db57600080fd5b600084013567ffffffffffffffff8111156108f557600080fd5b61090186828701610846565b935050602084013567ffffffffffffffff81111561091e57600080fd5b61092a86828701610846565b925050604084013567ffffffffffffffff81111561094757600080fd5b61095386828701610846565b9150509250925092565b6000806040838503121561097057600080fd5b600083013567ffffffffffffffff81111561098a57600080fd5b61099685828601610846565b92505060206109a785828601610870565b9150509250929050565b6109ba81610c6f565b82525050565b60006109cb82610c48565b6109d58185610c53565b93506109e5818560208601610c94565b6109ee81610d57565b840191505092915050565b6000610a0482610c48565b610a0e8185610c64565b9350610a1e818560208601610c94565b80840191505092915050565b6000610a37601383610c53565b91507f446f63746f72206e6f74207665726966696564000000000000000000000000006000830152602082019050919050565b610a7381610c7b565b82525050565b6000610a8582846109f9565b915081905092915050565b600060a0820190508181036000830152610aaa81886109c0565b90508181036020830152610abe81876109c0565b90508181036040830152610ad281866109c0565b9050610ae160608301856109b1565b610aee6080830184610a6a565b9695505050505050565b60006060820190508181036000830152610b1281866109c0565b90508181036020830152610b2681856109c0565b9050610b356040830184610a6a565b949350505050565b60006080820190508181036000830152610b5781876109c0565b90508181036020830152610b6b81866109c0565b9050610b7a6040830185610a6a565b8181036060830152610b8c81846109c0565b905095945050505050565b60006040820190508181036000830152610bb181856109c0565b9050610bc06020830184610a6a565b9392505050565b60006020820190508181036000830152610be081610a2a565b9050919050565b6000604051905081810181811067ffffffffffffffff82111715610c0e57610c0d610d28565b5b8060405250919050565b600067ffffffffffffffff821115610c3357610c32610d28565b5b601f19601f8301169050602081019050919050565b600081519050919050565b600082825260208201905092915050565b600081905092915050565b60008115159050919050565b6000819050919050565b82818337600083830152505050565b60005b83811015610cb2578082015181840152602081019050610c97565b83811115610cc1576000848401525b50505050565b60006002820490506001821680610cdf57607f821691505b60208210811415610cf357610cf2610cf9565b5b50919050565b7f4e487b7100000000000000000000000000000000000000000000000000000000600052602260045260246000fd5b7f4e487b7100000000000000000000000000000000000000000000000000000000600052604160045260246000fd5b6000601f19601f8301169050919050565b610d7181610c7b565b8114610d7c57600080fd5b5056fea264697066735822122075158afc6ab317a426c0d0202dc19f55c09ad78c3f25017adc95dfa9cb64541664736f6c63430008000033",
  "immutableReferences": {},
  "source": "pragma solidity ^0.8.0;\r\n\r\ncontract DoctorVerification {\r\n    struct Doctor {\r\n        string licenseNumber;\r\n        string idPhotoHash;\r\n        string livePhotoHash;\r\n        bool isVerified;\r\n        uint256 verificationTimestamp;\r\n    }\r\n\r\n    struct AccessRecord {\r\n        string patientAadhaar;\r\n        string doctorLicense;\r\n        uint256 timestamp;\r\n        string reason;\r\n    }\r\n\r\n    mapping(string => Doctor) public doctors;\r\n    mapping(string => AccessRecord[]) public accessRecords;\r\n\r\n    event DoctorVerified(string licenseNumber, uint256 timestamp);\r\n    event RecordAccessed(string doctorLicense, string patientAadhaar, uint256 timestamp);\r\n\r\n    function verifyDoctor(\r\n        string memory _licenseNumber,\r\n        string memory _idPhotoHash,\r\n        string memory _livePhotoHash\r\n    ) public {\r\n        doctors[_licenseNumber] = Doctor({\r\n            licenseNumber: _licenseNumber,\r\n            idPhotoHash: _idPhotoHash,\r\n            livePhotoHash: _livePhotoHash,\r\n            isVerified: true,\r\n            verificationTimestamp: block.timestamp\r\n        });\r\n\r\n        emit DoctorVerified(_licenseNumber, block.timestamp);\r\n    }\r\n\r\n    function recordAccess(\r\n        string memory _doctorLicense,\r\n        string memory _patientAadhaar,\r\n        string memory _reason\r\n    ) public {\r\n        require(doctors[_doctorLicense].isVerified, \"Doctor not verified\");\r\n\r\n        AccessRecord memory record = AccessRecord({\r\n            doctorLicense: _doctorLicense,\r\n            patientAadhaar: _patientAadhaar,\r\n            timestamp: block.timestamp,\r\n            reason: _reason\r\n        });\r\n\r\n        accessRecords[_patientAadhaar].push(record);\r\n        emit RecordAccessed(_doctorLicense, _patientAadhaar, block.timestamp);\r\n    }\r\n}",
  "sourcePath": "C:\\Users\\Sai Divya\\Desktop\\SAI\\Healthcare_blockchain\\BACKEND\\contracts\\DoctorVerification.sol",
  "compiler": {
    "name": "solc",
    "version": "0.8.0+commit.c7dfd78e.Emscripten.clang"
  },
  "schemaVersion": "3.4.16",
  "updatedAt": "2025-05-24T01:11:22.977Z",
  "networkType": "ethereum",
  "devdoc": {
    "kind": "dev",
    "methods": {},
    "version": 1
  },
  "userdoc": {
    "kind": "user",
    "methods": {},
    "version": 1
  }
}