{
  "contractName": "EmergencyAccess",
  "abi": [
    {
      "inputs": [
        {
          "internalType": "address",
          "name": "",
          "type": "address"
        },
        {
          "internalType": "uint256",
          "name": "",
          "type": "uint256"
        }
      ],
      "name": "accessRequests",
      "outputs": [
        {
          "internalType": "string",
          "name": "doctorId",
          "type": "string"
        },
        {
          "internalType": "string",
          "name": "photoHash",
          "type": "string"
        },
        {
          "internalType": "bool",
          "name": "isEmergency",
          "type": "bool"
        }
      ],
      "stateMutability": "view",
      "type": "function",
      "constant": true
    },
    {
      "inputs": [
        {
          "internalType": "string",
          "name": "_doctorId",
          "type": "string"
        },
        {
          "internalType": "string",
          "name": "_photoHash",
          "type": "string"
        },
        {
          "internalType": "bool",
          "name": "_isEmergency",
          "type": "bool"
        }
      ],
      "name": "requestAccess",
      "outputs": [],
      "stateMutability": "nonpayable",
      "type": "function"
    },
    {
      "inputs": [
        {
          "internalType": "address",
          "name": "_user",
          "type": "address"
        }
      ],
      "name": "getAccessRequests",
      "outputs": [
        {
          "components": [
            {
              "internalType": "string",
              "name": "doctorId",
              "type": "string"
            },
            {
              "internalType": "string",
              "name": "photoHash",
              "type": "string"
            },
            {
              "internalType": "bool",
              "name": "isEmergency",
              "type": "bool"
            }
          ],
          "internalType": "struct EmergencyAccess.AccessRequest[]",
          "name": "",
          "type": "tuple[]"
        }
      ],
      "stateMutability": "view",
      "type": "function",
      "constant": true
    }
  ],
  "bytecode": "0x608060405234801561001057600080fd5b50610c21806100206000396000f3fe608060405234801561001057600080fd5b50600436106100415760003560e01c80631e7b3011146100465780633a0eb7ad14610078578063cf37433414610094575b600080fd5b610060600480360381019061005b919061069c565b6100c4565b60405161006f9392919061094f565b60405180910390f35b610092600480360381019061008d91906106d8565b610228565b005b6100ae60048036038101906100a99190610673565b61034d565b6040516100bb919061092d565b60405180910390f35b600060205281600052604060002081815481106100e057600080fd5b90600052602060002090600302016000915091505080600001805461010490610b05565b80601f016020809104026020016040519081016040528092919081815260200182805461013090610b05565b801561017d5780601f106101525761010080835404028352916020019161017d565b820191906000526020600020905b81548152906001019060200180831161016057829003601f168201915b50505050509080600101805461019290610b05565b80601f01602080910402602001604051908101604052809291908181526020018280546101be90610b05565b801561020b5780601f106101e05761010080835404028352916020019161020b565b820191906000526020600020905b8154815290600101906020018083116101ee57829003601f168201915b5050505050908060020160009054906101000a900460ff16905083565b80610268576040517f08c379a000000000000000000000000000000000000000000000000000000000815260040161025f90610994565b60405180910390fd5b6000803373ffffffffffffffffffffffffffffffffffffffff1673ffffffffffffffffffffffffffffffffffffffff168152602001908152602001600020604051806060016040528085815260200184815260200183151581525090806001815401808255809150506001900390600052602060002090600302016000909190919091506000820151816000019080519060200190610308929190610529565b506020820151816001019080519060200190610325929190610529565b5060408201518160020160006101000a81548160ff0219169083151502179055505050505050565b60606000808373ffffffffffffffffffffffffffffffffffffffff1673ffffffffffffffffffffffffffffffffffffffff168152602001908152602001600020805480602002602001604051908101604052809291908181526020016000905b8282101561051e57838290600052602060002090600302016040518060600160405290816000820180546103e090610b05565b80601f016020809104026020016040519081016040528092919081815260200182805461040c90610b05565b80156104595780601f1061042e57610100808354040283529160200191610459565b820191906000526020600020905b81548152906001019060200180831161043c57829003601f168201915b5050505050815260200160018201805461047290610b05565b80601f016020809104026020016040519081016040528092919081815260200182805461049e90610b05565b80156104eb5780601f106104c0576101008083540402835291602001916104eb565b820191906000526020600020905b8154815290600101906020018083116104ce57829003601f168201915b505050505081526020016002820160009054906101000a900460ff161515151581525050815260200190600101906103ad565b505050509050919050565b82805461053590610b05565b90600052602060002090601f016020900481019282610557576000855561059e565b82601f1061057057805160ff191683800117855561059e565b8280016001018555821561059e579182015b8281111561059d578251825591602001919060010190610582565b5b5090506105ab91906105af565b5090565b5b808211156105c85760008160009055506001016105b0565b5090565b60006105df6105da846109e5565b6109b4565b9050828152602081018484840111156105f757600080fd5b610602848285610ac3565b509392505050565b60008135905061061981610ba6565b92915050565b60008135905061062e81610bbd565b92915050565b600082601f83011261064557600080fd5b81356106558482602086016105cc565b91505092915050565b60008135905061066d81610bd4565b92915050565b60006020828403121561068557600080fd5b60006106938482850161060a565b91505092915050565b600080604083850312156106af57600080fd5b60006106bd8582860161060a565b92505060206106ce8582860161065e565b9150509250929050565b6000806000606084860312156106ed57600080fd5b600084013567ffffffffffffffff81111561070757600080fd5b61071386828701610634565b935050602084013567ffffffffffffffff81111561073057600080fd5b61073c86828701610634565b925050604061074d8682870161061f565b9150509250925092565b600061076383836108d6565b905092915050565b600061077682610a25565b6107808185610a48565b93508360208202850161079285610a15565b8060005b858110156107ce57848403895281516107af8582610757565b94506107ba83610a3b565b925060208a01995050600181019050610796565b50829750879550505050505092915050565b6107e981610a8d565b82525050565b6107f881610a8d565b82525050565b600061080982610a30565b6108138185610a59565b9350610823818560208601610ad2565b61082c81610b95565b840191505092915050565b600061084282610a30565b61084c8185610a6a565b935061085c818560208601610ad2565b61086581610b95565b840191505092915050565b600061087d602383610a6a565b91507f416363657373206f6e6c7920616c6c6f77656420666f7220656d657267656e6360008301527f69657300000000000000000000000000000000000000000000000000000000006020830152604082019050919050565b600060608301600083015184820360008601526108f382826107fe565b9150506020830151848203602086015261090d82826107fe565b915050604083015161092260408601826107e0565b508091505092915050565b60006020820190508181036000830152610947818461076b565b905092915050565b600060608201905081810360008301526109698186610837565b9050818103602083015261097d8185610837565b905061098c60408301846107ef565b949350505050565b600060208201905081810360008301526109ad81610870565b9050919050565b6000604051905081810181811067ffffffffffffffff821117156109db576109da610b66565b5b8060405250919050565b600067ffffffffffffffff821115610a00576109ff610b66565b5b601f19601f8301169050602081019050919050565b6000819050602082019050919050565b600081519050919050565b600081519050919050565b6000602082019050919050565b600082825260208201905092915050565b600082825260208201905092915050565b600082825260208201905092915050565b6000610a8682610a99565b9050919050565b60008115159050919050565b600073ffffffffffffffffffffffffffffffffffffffff82169050919050565b6000819050919050565b82818337600083830152505050565b60005b83811015610af0578082015181840152602081019050610ad5565b83811115610aff576000848401525b50505050565b60006002820490506001821680610b1d57607f821691505b60208210811415610b3157610b30610b37565b5b50919050565b7f4e487b7100000000000000000000000000000000000000000000000000000000600052602260045260246000fd5b7f4e487b7100000000000000000000000000000000000000000000000000000000600052604160045260246000fd5b6000601f19601f8301169050919050565b610baf81610a7b565b8114610bba57600080fd5b50565b610bc681610a8d565b8114610bd157600080fd5b50565b610bdd81610ab9565b8114610be857600080fd5b5056fea26469706673582212208ccf447c7e378aa80fdad758f06dce48c09034113b366d005c4634bce97c9ece64736f6c63430008000033",
  "immutableReferences": {},
  "source": "pragma solidity ^0.8.0;\r\n\r\ncontract EmergencyAccess {\r\n    struct AccessRequest {\r\n        string doctorId;\r\n        string photoHash;\r\n        bool isEmergency;\r\n    }\r\n\r\n    mapping(address => AccessRequest[]) public accessRequests;\r\n\r\n    function requestAccess(string memory _doctorId, string memory _photoHash, bool _isEmergency) public {\r\n        require(_isEmergency, \"Access only allowed for emergencies\");\r\n        accessRequests[msg.sender].push(AccessRequest(_doctorId, _photoHash, _isEmergency));\r\n    }\r\n\r\n    function getAccessRequests(address _user) public view returns (AccessRequest[] memory) {\r\n        return accessRequests[_user];\r\n    }\r\n}",
  "sourcePath": "C:\\Users\\Sai Divya\\Desktop\\SAI\\Healthcare_blockchain\\BACKEND\\contracts\\EmergencyAccess.sol",
  "compiler": {
    "name": "solc",
    "version": "0.8.0+commit.c7dfd78e.Emscripten.clang"
  },
  "schemaVersion": "3.4.16",
  "updatedAt": "2025-05-24T01:11:22.983Z",
  "networkType": "ethereum",
  "devdoc": {
    "kind": "dev",
    "methods": {},
    "version": 1
  },
  "userdoc": {
    "kind": "user",
    "methods": {},
    "version": 1
  }
}