{
  "contractName": "HealthRecords",
  "abi": [
    {
      "inputs": [],
      "stateMutability": "nonpayable",
      "type": "constructor"
    },
    {
      "anonymous": false,
      "inputs": [
        {
          "indexed": true,
          "internalType": "string",
          "name": "aadhaarNumber",
          "type": "string"
        },
        {
          "indexed": true,
          "internalType": "address",
          "name": "doctor",
          "type": "address"
        }
      ],
      "name": "AccessGranted",
      "type": "event"
    },
    {
      "anonymous": false,
      "inputs": [
        {
          "indexed": true,
          "internalType": "string",
          "name": "aadhaarNumber",
          "type": "string"
        },
        {
          "indexed": true,
          "internalType": "address",
          "name": "doctor",
          "type": "address"
        }
      ],
      "name": "AccessRevoked",
      "type": "event"
    },
    {
      "anonymous": false,
      "inputs": [
        {
          "indexed": true,
          "internalType": "string",
          "name": "aadhaarNumber",
          "type": "string"
        },
        {
          "indexed": true,
          "internalType": "address",
          "name": "hospital",
          "type": "address"
        }
      ],
      "name": "EmergencyAccessGranted",
      "type": "event"
    },
    {
      "anonymous": false,
      "inputs": [
        {
          "indexed": true,
          "internalType": "string",
          "name": "aadhaarNumber",
          "type": "string"
        }
      ],
      "name": "EmergencyAccessRevoked",
      "type": "event"
    },
    {
      "anonymous": false,
      "inputs": [
        {
          "indexed": true,
          "internalType": "string",
          "name": "aadhaarNumber",
          "type": "string"
        },
        {
          "indexed": false,
          "internalType": "string",
          "name": "fileHash",
          "type": "string"
        },
        {
          "indexed": false,
          "internalType": "uint256",
          "name": "timestamp",
          "type": "uint256"
        }
      ],
      "name": "RecordAdded",
      "type": "event"
    },
    {
      "anonymous": false,
      "inputs": [
        {
          "indexed": true,
          "internalType": "bytes32",
          "name": "role",
          "type": "bytes32"
        },
        {
          "indexed": true,
          "internalType": "bytes32",
          "name": "previousAdminRole",
          "type": "bytes32"
        },
        {
          "indexed": true,
          "internalType": "bytes32",
          "name": "newAdminRole",
          "type": "bytes32"
        }
      ],
      "name": "RoleAdminChanged",
      "type": "event"
    },
    {
      "anonymous": false,
      "inputs": [
        {
          "indexed": true,
          "internalType": "bytes32",
          "name": "role",
          "type": "bytes32"
        },
        {
          "indexed": true,
          "internalType": "address",
          "name": "account",
          "type": "address"
        },
        {
          "indexed": true,
          "internalType": "address",
          "name": "sender",
          "type": "address"
        }
      ],
      "name": "RoleGranted",
      "type": "event"
    },
    {
      "anonymous": false,
      "inputs": [
        {
          "indexed": true,
          "internalType": "bytes32",
          "name": "role",
          "type": "bytes32"
        },
        {
          "indexed": true,
          "internalType": "address",
          "name": "account",
          "type": "address"
        },
        {
          "indexed": true,
          "internalType": "address",
          "name": "sender",
          "type": "address"
        }
      ],
      "name": "RoleRevoked",
      "type": "event"
    },
    {
      "inputs": [],
      "name": "DEFAULT_ADMIN_ROLE",
      "outputs": [
        {
          "internalType": "bytes32",
          "name": "",
          "type": "bytes32"
        }
      ],
      "stateMutability": "view",
      "type": "function"
    },
    {
      "inputs": [],
      "name": "DOCTOR_ROLE",
      "outputs": [
        {
          "internalType": "bytes32",
          "name": "",
          "type": "bytes32"
        }
      ],
      "stateMutability": "view",
      "type": "function"
    },
    {
      "inputs": [],
      "name": "HOSPITAL_ROLE",
      "outputs": [
        {
          "internalType": "bytes32",
          "name": "",
          "type": "bytes32"
        }
      ],
      "stateMutability": "view",
      "type": "function"
    },
    {
      "inputs": [],
      "name": "PATIENT_ROLE",
      "outputs": [
        {
          "internalType": "bytes32",
          "name": "",
          "type": "bytes32"
        }
      ],
      "stateMutability": "view",
      "type": "function"
    },
    {
      "inputs": [
        {
          "internalType": "bytes32",
          "name": "role",
          "type": "bytes32"
        }
      ],
      "name": "getRoleAdmin",
      "outputs": [
        {
          "internalType": "bytes32",
          "name": "",
          "type": "bytes32"
        }
      ],
      "stateMutability": "view",
      "type": "function"
    },
    {
      "inputs": [
        {
          "internalType": "bytes32",
          "name": "role",
          "type": "bytes32"
        },
        {
          "internalType": "address",
          "name": "account",
          "type": "address"
        }
      ],
      "name": "grantRole",
      "outputs": [],
      "stateMutability": "nonpayable",
      "type": "function"
    },
    {
      "inputs": [
        {
          "internalType": "bytes32",
          "name": "role",
          "type": "bytes32"
        },
        {
          "internalType": "address",
          "name": "account",
          "type": "address"
        }
      ],
      "name": "hasRole",
      "outputs": [
        {
          "internalType": "bool",
          "name": "",
          "type": "bool"
        }
      ],
      "stateMutability": "view",
      "type": "function"
    },
    {
      "inputs": [
        {
          "internalType": "bytes32",
          "name": "role",
          "type": "bytes32"
        },
        {
          "internalType": "address",
          "name": "account",
          "type": "address"
        }
      ],
      "name": "renounceRole",
      "outputs": [],
      "stateMutability": "nonpayable",
      "type": "function"
    },
    {
      "inputs": [
        {
          "internalType": "bytes32",
          "name": "role",
          "type": "bytes32"
        },
        {
          "internalType": "address",
          "name": "account",
          "type": "address"
        }
      ],
      "name": "revokeRole",
      "outputs": [],
      "stateMutability": "nonpayable",
      "type": "function"
    },
    {
      "inputs": [
        {
          "internalType": "bytes4",
          "name": "interfaceId",
          "type": "bytes4"
        }
      ],
      "name": "supportsInterface",
      "outputs": [
        {
          "internalType": "bool",
          "name": "",
          "type": "bool"
        }
      ],
      "stateMutability": "view",
      "type": "function"
    },
    {
      "inputs": [
        {
          "internalType": "string",
          "name": "_aadhaarNumber",
          "type": "string"
        },
        {
          "internalType": "string",
          "name": "_fileHash",
          "type": "string"
        },
        {
          "internalType": "string",
          "name": "_recordType",
          "type": "string"
        },
        {
          "internalType": "bool",
          "name": "_isEmergencyAccessible",
          "type": "bool"
        }
      ],
      "name": "addRecord",
      "outputs": [],
      "stateMutability": "nonpayable",
      "type": "function"
    },
    {
      "inputs": [
        {
          "internalType": "string",
          "name": "_aadhaarNumber",
          "type": "string"
        },
        {
          "internalType": "address",
          "name": "_doctor",
          "type": "address"
        }
      ],
      "name": "grantAccess",
      "outputs": [],
      "stateMutability": "nonpayable",
      "type": "function"
    },
    {
      "inputs": [
        {
          "internalType": "string",
          "name": "_aadhaarNumber",
          "type": "string"
        },
        {
          "internalType": "address",
          "name": "_doctor",
          "type": "address"
        }
      ],
      "name": "revokeAccess",
      "outputs": [],
      "stateMutability": "nonpayable",
      "type": "function"
    },
    {
      "inputs": [
        {
          "internalType": "string",
          "name": "_aadhaarNumber",
          "type": "string"
        }
      ],
      "name": "grantEmergencyAccess",
      "outputs": [],
      "stateMutability": "nonpayable",
      "type": "function"
    },
    {
      "inputs": [
        {
          "internalType": "string",
          "name": "_aadhaarNumber",
          "type": "string"
        }
      ],
      "name": "revokeEmergencyAccess",
      "outputs": [],
      "stateMutability": "nonpayable",
      "type": "function"
    },
    {
      "inputs": [
        {
          "internalType": "string",
          "name": "_aadhaarNumber",
          "type": "string"
        }
      ],
      "name": "getRecords",
      "outputs": [
        {
          "components": [
            {
              "internalType": "string",
              "name": "fileHash",
              "type": "string"
            },
            {
              "internalType": "string",
              "name": "recordType",
              "type": "string"
            },
            {
              "internalType": "uint256",
              "name": "timestamp",
              "type": "uint256"
            },
            {
              "internalType": "string",
              "name": "aadhaarNumber",
              "type": "string"
            },
            {
              "internalType": "address",
              "name": "creator",
              "type": "address"
            },
            {
              "internalType": "bool",
              "name": "isEmergencyAccessible",
              "type": "bool"
            }
          ],
          "internalType": "struct HealthRecords.Record[]",
          "name": "",
          "type": "tuple[]"
        }
      ],
      "stateMutability": "view",
      "type": "function"
    },
    {
      "inputs": [
        {
          "internalType": "string",
          "name": "_aadhaarNumber",
          "type": "string"
        }
      ],
      "name": "getEmergencyAccessDetails",
      "outputs": [
        {
          "components": [
            {
              "internalType": "address",
              "name": "hospital",
              "type": "address"
            },
            {
              "internalType": "uint256",
              "name": "grantedAt",
              "type": "uint256"
            },
            {
              "internalType": "uint256",
              "name": "expiresAt",
              "type": "uint256"
            },
            {
              "internalType": "bool",
              "name": "isActive",
              "type": "bool"
            }
          ],
          "internalType": "struct HealthRecords.EmergencyAccess",
          "name": "",
          "type": "tuple"
        }
      ],
      "stateMutability": "view",
      "type": "function"
    }
  ],
  "bytecode": "0x60806040523480156200001157600080fd5b50600180819055506200002e6000801b336200003460201b60201c565b620001ad565b6200004682826200004a60201b60201c565b5050565b6200005c82826200013b60201b60201c565b6200013757600160008084815260200190815260200160002060000160008373ffffffffffffffffffffffffffffffffffffffff1673ffffffffffffffffffffffffffffffffffffffff16815260200190815260200160002060006101000a81548160ff021916908315150217905550620000dc620001a560201b60201c565b73ffffffffffffffffffffffffffffffffffffffff168173ffffffffffffffffffffffffffffffffffffffff16837f2f8788117e7eff1d82e926ec794901d17c78024a50270940304540a733656f0d60405160405180910390a45b5050565b600080600084815260200190815260200160002060000160008373ffffffffffffffffffffffffffffffffffffffff1673ffffffffffffffffffffffffffffffffffffffff16815260200190815260200160002060009054906101000a900460ff16905092915050565b600033905090565b612dc980620001bd6000396000f3fe608060405234801561001057600080fd5b506004361061010b5760003560e01c8063a217fddf116100a2578063d547741f11610071578063d547741f146102c8578063dfe0b5fe146102e4578063f37c215e14610300578063f6ba66781461031c578063fec331f21461033a5761010b565b8063a217fddf14610254578063ac5cb97d14610272578063af0c2c9914610290578063cb429513146102ac5761010b565b806336568abe116100de57806336568abe146101bc57806359c4e402146101d857806386e80b71146101f457806391d14854146102245761010b565b806301ffc9a7146101105780630f9b167f14610140578063248a9ca3146101705780632f2ff15d146101a0575b600080fd5b61012a60048036038101906101259190611efe565b610358565b6040516101379190612798565b60405180910390f35b61015a60048036038101906101559190611f27565b6103d2565b60405161016791906129e0565b60405180910390f35b61018a60048036038101906101859190611e99565b610529565b60405161019791906127b3565b60405180910390f35b6101ba60048036038101906101b59190611ec2565b610548565b005b6101d660048036038101906101d19190611ec2565b610569565b005b6101f260048036038101906101ed9190611f27565b6105ec565b005b61020e60048036038101906102099190611f27565b6107f1565b60405161021b9190612776565b60405180910390f35b61023e60048036038101906102399190611ec2565b610c84565b60405161024b9190612798565b60405180910390f35b61025c610cee565b60405161026991906127b3565b60405180910390f35b61027a610cf5565b60405161028791906127b3565b60405180910390f35b6102aa60048036038101906102a59190611fbc565b610d19565b005b6102c660048036038101906102c19190611f27565b610feb565b005b6102e260048036038101906102dd9190611ec2565b611213565b005b6102fe60048036038101906102f99190611f68565b611234565b005b61031a60048036038101906103159190611f68565b611418565b005b610324611666565b60405161033191906127b3565b60405180910390f35b61034261168a565b60405161034f91906127b3565b60405180910390f35b60007f7965db0b000000000000000000000000000000000000000000000000000000007bffffffffffffffffffffffffffffffffffffffffffffffffffffffff1916827bffffffffffffffffffffffffffffffffffffffffffffffffffffffff191614806103cb57506103ca826116ae565b5b9050919050565b6103da611cfa565b6104047f72606200fac42b7dc86b75901d61ecfab2a4a1a6eded478b97a428094891abed33610c84565b8061043557506104347fc8f5b4140cca307cd927e59cbeea8291bffeee228fc677f0fa059aef7b4dd8d533610c84565b5b610474576040517f08c379a000000000000000000000000000000000000000000000000000000000815260040161046b90612860565b60405180910390fd5b6004826040516104849190612725565b90815260200160405180910390206040518060800160405290816000820160009054906101000a900473ffffffffffffffffffffffffffffffffffffffff1673ffffffffffffffffffffffffffffffffffffffff1673ffffffffffffffffffffffffffffffffffffffff16815260200160018201548152602001600282015481526020016003820160009054906101000a900460ff1615151515815250509050919050565b6000806000838152602001908152602001600020600101549050919050565b61055182610529565b61055a81611718565b610564838361172c565b505050565b61057161180c565b73ffffffffffffffffffffffffffffffffffffffff168173ffffffffffffffffffffffffffffffffffffffff16146105de576040517f08c379a00000000000000000000000000000000000000000000000000000000081526004016105d5906129c0565b60405180910390fd5b6105e88282611814565b5050565b6106167fc8f5b4140cca307cd927e59cbeea8291bffeee228fc677f0fa059aef7b4dd8d533610c84565b610655576040517f08c379a000000000000000000000000000000000000000000000000000000000815260040161064c90612880565b60405180910390fd5b3373ffffffffffffffffffffffffffffffffffffffff1660048260405161067c9190612725565b908152602001604051809103902060000160009054906101000a900473ffffffffffffffffffffffffffffffffffffffff1673ffffffffffffffffffffffffffffffffffffffff1614610704576040517f08c379a00000000000000000000000000000000000000000000000000000000081526004016106fb906129a0565b60405180910390fd5b6004816040516107149190612725565b908152602001604051809103902060030160009054906101000a900460ff16610772576040517f08c379a000000000000000000000000000000000000000000000000000000000815260040161076990612900565b60405180910390fd5b60006004826040516107849190612725565b908152602001604051809103902060030160006101000a81548160ff021916908315150217905550806040516107ba9190612725565b60405180910390207f95636047f4a23b816733ed1ba5570878c905501797341e593a2e937e122342bd60405160405180910390a250565b606061081d7f72606200fac42b7dc86b75901d61ecfab2a4a1a6eded478b97a428094891abed33610c84565b8061088d57506003826040516108339190612725565b908152602001604051809103902060003373ffffffffffffffffffffffffffffffffffffffff1673ffffffffffffffffffffffffffffffffffffffff16815260200190815260200160002060009054906101000a900460ff165b8061099957506108bd7fc8f5b4140cca307cd927e59cbeea8291bffeee228fc677f0fa059aef7b4dd8d533610c84565b80156108f457506004826040516108d49190612725565b908152602001604051809103902060030160009054906101000a900460ff165b801561096c57503373ffffffffffffffffffffffffffffffffffffffff166004836040516109229190612725565b908152602001604051809103902060000160009054906101000a900473ffffffffffffffffffffffffffffffffffffffff1673ffffffffffffffffffffffffffffffffffffffff16145b80156109985750426004836040516109849190612725565b908152602001604051809103902060020154115b5b6109d8576040517f08c379a00000000000000000000000000000000000000000000000000000000081526004016109cf906128e0565b60405180910390fd5b6002826040516109e89190612725565b9081526020016040518091039020805480602002602001604051908101604052809291908181526020016000905b82821015610c7957838290600052602060002090600502016040518060c0016040529081600082018054610a4990612c67565b80601f0160208091040260200160405190810160405280929190818152602001828054610a7590612c67565b8015610ac25780601f10610a9757610100808354040283529160200191610ac2565b820191906000526020600020905b815481529060010190602001808311610aa557829003601f168201915b50505050508152602001600182018054610adb90612c67565b80601f0160208091040260200160405190810160405280929190818152602001828054610b0790612c67565b8015610b545780601f10610b2957610100808354040283529160200191610b54565b820191906000526020600020905b815481529060010190602001808311610b3757829003601f168201915b5050505050815260200160028201548152602001600382018054610b7790612c67565b80601f0160208091040260200160405190810160405280929190818152602001828054610ba390612c67565b8015610bf05780601f10610bc557610100808354040283529160200191610bf0565b820191906000526020600020905b815481529060010190602001808311610bd357829003601f168201915b505050505081526020016004820160009054906101000a900473ffffffffffffffffffffffffffffffffffffffff1673ffffffffffffffffffffffffffffffffffffffff1673ffffffffffffffffffffffffffffffffffffffff1681526020016004820160149054906101000a900460ff16151515158152505081526020019060010190610a16565b505050509050919050565b600080600084815260200190815260200160002060000160008373ffffffffffffffffffffffffffffffffffffffff1673ffffffffffffffffffffffffffffffffffffffff16815260200190815260200160002060009054906101000a900460ff16905092915050565b6000801b81565b7f72606200fac42b7dc86b75901d61ecfab2a4a1a6eded478b97a428094891abed81565b610d437f0af1dac7dea2fd7f7738119cec7df099dfad49aa9d2e7d17ba6b60f63ae7411f33610c84565b610d82576040517f08c379a0000000000000000000000000000000000000000000000000000000008152600401610d7990612840565b60405180910390fd5b610d8a6118f5565b600384604051610d9a9190612725565b908152602001604051809103902060003373ffffffffffffffffffffffffffffffffffffffff1673ffffffffffffffffffffffffffffffffffffffff16815260200190815260200160002060009054906101000a900460ff16610e32576040517f08c379a0000000000000000000000000000000000000000000000000000000008152600401610e29906128c0565b60405180910390fd5b60006040518060c001604052808581526020018481526020014281526020018681526020013373ffffffffffffffffffffffffffffffffffffffff1681526020018315158152509050600285604051610e8b9190612725565b90815260200160405180910390208190806001815401808255809150506001900390600052602060002090600502016000909190919091506000820151816000019080519060200190610edf929190611d3a565b506020820151816001019080519060200190610efc929190611d3a565b50604082015181600201556060820151816003019080519060200190610f23929190611d3a565b5060808201518160040160006101000a81548173ffffffffffffffffffffffffffffffffffffffff021916908373ffffffffffffffffffffffffffffffffffffffff16021790555060a08201518160040160146101000a81548160ff021916908315150217905550505084604051610f9b9190612725565b60405180910390207f2fda3ce68e3316f21c26863e3b64c0bca4dfc4d6cb5777ef08d41c56482e22218542604051610fd49291906127f0565b60405180910390a250610fe5611945565b50505050565b6110157fc8f5b4140cca307cd927e59cbeea8291bffeee228fc677f0fa059aef7b4dd8d533610c84565b611054576040517f08c379a000000000000000000000000000000000000000000000000000000000815260040161104b90612880565b60405180910390fd5b61105c6118f5565b60048160405161106c9190612725565b908152602001604051809103902060030160009054906101000a900460ff16156110cb576040517f08c379a00000000000000000000000000000000000000000000000000000000081526004016110c290612940565b60405180910390fd5b60405180608001604052803373ffffffffffffffffffffffffffffffffffffffff16815260200142815260200162015180426111079190612acd565b8152602001600115158152506004826040516111239190612725565b908152602001604051809103902060008201518160000160006101000a81548173ffffffffffffffffffffffffffffffffffffffff021916908373ffffffffffffffffffffffffffffffffffffffff160217905550602082015181600101556040820151816002015560608201518160030160006101000a81548160ff0219169083151502179055509050503373ffffffffffffffffffffffffffffffffffffffff16816040516111d49190612725565b60405180910390207f7890e3abdee26683ca0fb813c835ebbba5becf2fbcd85def70e3637ba9c1d2ff60405160405180910390a3611210611945565b50565b61121c82610529565b61122581611718565b61122f8383611814565b505050565b8161125f7f72606200fac42b7dc86b75901d61ecfab2a4a1a6eded478b97a428094891abed33610c84565b61129e576040517f08c379a000000000000000000000000000000000000000000000000000000000815260040161129590612920565b60405180910390fd5b6003836040516112ae9190612725565b908152602001604051809103902060008373ffffffffffffffffffffffffffffffffffffffff1673ffffffffffffffffffffffffffffffffffffffff16815260200190815260200160002060009054906101000a900460ff16611346576040517f08c379a000000000000000000000000000000000000000000000000000000000815260040161133d906128c0565b60405180910390fd5b60006003846040516113589190612725565b908152602001604051809103902060008473ffffffffffffffffffffffffffffffffffffffff1673ffffffffffffffffffffffffffffffffffffffff16815260200190815260200160002060006101000a81548160ff0219169083151502179055508173ffffffffffffffffffffffffffffffffffffffff16836040516113df9190612725565b60405180910390207fa4056635223780a71518e8c10b6fc0fd195775c8375c4841c124a959ae5c30ad60405160405180910390a3505050565b816114437f72606200fac42b7dc86b75901d61ecfab2a4a1a6eded478b97a428094891abed33610c84565b611482576040517f08c379a000000000000000000000000000000000000000000000000000000000815260040161147990612920565b60405180910390fd5b6003836040516114929190612725565b908152602001604051809103902060008373ffffffffffffffffffffffffffffffffffffffff1673ffffffffffffffffffffffffffffffffffffffff16815260200190815260200160002060009054906101000a900460ff161561152b576040517f08c379a0000000000000000000000000000000000000000000000000000000008152600401611522906128a0565b60405180910390fd5b6115557f0af1dac7dea2fd7f7738119cec7df099dfad49aa9d2e7d17ba6b60f63ae7411f83610c84565b611594576040517f08c379a000000000000000000000000000000000000000000000000000000000815260040161158b90612960565b60405180910390fd5b60016003846040516115a69190612725565b908152602001604051809103902060008473ffffffffffffffffffffffffffffffffffffffff1673ffffffffffffffffffffffffffffffffffffffff16815260200190815260200160002060006101000a81548160ff0219169083151502179055508173ffffffffffffffffffffffffffffffffffffffff168360405161162d9190612725565b60405180910390207f780f596ecb91e1e030f57631a828b4c1f227615c1e11422248348930f6d2160c60405160405180910390a3505050565b7fc8f5b4140cca307cd927e59cbeea8291bffeee228fc677f0fa059aef7b4dd8d581565b7f0af1dac7dea2fd7f7738119cec7df099dfad49aa9d2e7d17ba6b60f63ae7411f81565b60007f01ffc9a7000000000000000000000000000000000000000000000000000000007bffffffffffffffffffffffffffffffffffffffffffffffffffffffff1916827bffffffffffffffffffffffffffffffffffffffffffffffffffffffff1916149050919050565b6117298161172461180c565b61194e565b50565b6117368282610c84565b61180857600160008084815260200190815260200160002060000160008373ffffffffffffffffffffffffffffffffffffffff1673ffffffffffffffffffffffffffffffffffffffff16815260200190815260200160002060006101000a81548160ff0219169083151502179055506117ad61180c565b73ffffffffffffffffffffffffffffffffffffffff168173ffffffffffffffffffffffffffffffffffffffff16837f2f8788117e7eff1d82e926ec794901d17c78024a50270940304540a733656f0d60405160405180910390a45b5050565b600033905090565b61181e8282610c84565b156118f157600080600084815260200190815260200160002060000160008373ffffffffffffffffffffffffffffffffffffffff1673ffffffffffffffffffffffffffffffffffffffff16815260200190815260200160002060006101000a81548160ff02191690831515021790555061189661180c565b73ffffffffffffffffffffffffffffffffffffffff168173ffffffffffffffffffffffffffffffffffffffff16837ff6391f5c32d9c69d2a47ea670b442974b53935d1edc7fd64eb21e047a839171b60405160405180910390a45b5050565b6002600154141561193b576040517f08c379a000000000000000000000000000000000000000000000000000000000815260040161193290612980565b60405180910390fd5b6002600181905550565b60018081905550565b6119588282610c84565b6119cf57611965816119d3565b6119738360001c6020611a00565b60405160200161198492919061273c565b6040516020818303038152906040526040517f08c379a00000000000000000000000000000000000000000000000000000000081526004016119c691906127ce565b60405180910390fd5b5050565b60606119f98273ffffffffffffffffffffffffffffffffffffffff16601460ff16611a00565b9050919050565b606060006002836002611a139190612b23565b611a1d9190612acd565b67ffffffffffffffff811115611a5c577f4e487b7100000000000000000000000000000000000000000000000000000000600052604160045260246000fd5b6040519080825280601f01601f191660200182016040528015611a8e5781602001600182028036833780820191505090505b5090507f300000000000000000000000000000000000000000000000000000000000000081600081518110611aec577f4e487b7100000000000000000000000000000000000000000000000000000000600052603260045260246000fd5b60200101907effffffffffffffffffffffffffffffffffffffffffffffffffffffffffffff1916908160001a9053507f780000000000000000000000000000000000000000000000000000000000000081600181518110611b76577f4e487b7100000000000000000000000000000000000000000000000000000000600052603260045260246000fd5b60200101907effffffffffffffffffffffffffffffffffffffffffffffffffffffffffffff1916908160001a90535060006001846002611bb69190612b23565b611bc09190612acd565b90505b6001811115611cac577f3031323334353637383961626364656600000000000000000000000000000000600f861660108110611c28577f4e487b7100000000000000000000000000000000000000000000000000000000600052603260045260246000fd5b1a60f81b828281518110611c65577f4e487b7100000000000000000000000000000000000000000000000000000000600052603260045260246000fd5b60200101907effffffffffffffffffffffffffffffffffffffffffffffffffffffffffffff1916908160001a905350600485901c945080611ca590612c3d565b9050611bc3565b5060008414611cf0576040517f08c379a0000000000000000000000000000000000000000000000000000000008152600401611ce790612820565b60405180910390fd5b8091505092915050565b6040518060800160405280600073ffffffffffffffffffffffffffffffffffffffff16815260200160008152602001600081526020016000151581525090565b828054611d4690612c67565b90600052602060002090601f016020900481019282611d685760008555611daf565b82601f10611d8157805160ff1916838001178555611daf565b82800160010185558215611daf579182015b82811115611dae578251825591602001919060010190611d93565b5b509050611dbc9190611dc0565b5090565b5b80821115611dd9576000816000905550600101611dc1565b5090565b6000611df0611deb84612a2c565b6129fb565b905082815260208101848484011115611e0857600080fd5b611e13848285612bfb565b509392505050565b600081359050611e2a81612d37565b92915050565b600081359050611e3f81612d4e565b92915050565b600081359050611e5481612d65565b92915050565b600081359050611e6981612d7c565b92915050565b600082601f830112611e8057600080fd5b8135611e90848260208601611ddd565b91505092915050565b600060208284031215611eab57600080fd5b6000611eb984828501611e45565b91505092915050565b60008060408385031215611ed557600080fd5b6000611ee385828601611e45565b9250506020611ef485828601611e1b565b9150509250929050565b600060208284031215611f1057600080fd5b6000611f1e84828501611e5a565b91505092915050565b600060208284031215611f3957600080fd5b600082013567ffffffffffffffff811115611f5357600080fd5b611f5f84828501611e6f565b91505092915050565b60008060408385031215611f7b57600080fd5b600083013567ffffffffffffffff811115611f9557600080fd5b611fa185828601611e6f565b9250506020611fb285828601611e1b565b9150509250929050565b60008060008060808587031215611fd257600080fd5b600085013567ffffffffffffffff811115611fec57600080fd5b611ff887828801611e6f565b945050602085013567ffffffffffffffff81111561201557600080fd5b61202187828801611e6f565b935050604085013567ffffffffffffffff81111561203e57600080fd5b61204a87828801611e6f565b925050606061205b87828801611e30565b91505092959194509250565b60006120738383612670565b905092915050565b61208481612b7d565b82525050565b600061209582612a6c565b61209f8185612a8f565b9350836020820285016120b185612a5c565b8060005b858110156120ed57848403895281516120ce8582612067565b94506120d983612a82565b925060208a019950506001810190506120b5565b50829750879550505050505092915050565b61210881612b8f565b82525050565b61211781612b8f565b82525050565b61212681612b9b565b82525050565b600061213782612a77565b6121418185612aa0565b9350612151818560208601612c0a565b61215a81612d26565b840191505092915050565b600061217082612a77565b61217a8185612ab1565b935061218a818560208601612c0a565b61219381612d26565b840191505092915050565b60006121a982612a77565b6121b38185612ac2565b93506121c3818560208601612c0a565b80840191505092915050565b60006121dc602083612ab1565b91507f537472696e67733a20686578206c656e67746820696e73756666696369656e746000830152602082019050919050565b600061221c601683612ab1565b91507f43616c6c6572206973206e6f74206120646f63746f72000000000000000000006000830152602082019050919050565b600061225c602f83612ab1565b91507f4e6f7420617574686f72697a656420746f207669657720656d657267656e637960008301527f206163636573732064657461696c7300000000000000000000000000000000006020830152604082019050919050565b60006122c2601883612ab1565b91507f43616c6c6572206973206e6f74206120686f73706974616c00000000000000006000830152602082019050919050565b6000612302601983612ab1565b91507f446f63746f7220616c72656164792068617320616363657373000000000000006000830152602082019050919050565b6000612342601b83612ab1565b91507f446f63746f7220646f6573206e6f7420686176652061636365737300000000006000830152602082019050919050565b6000612382601e83612ab1565b91507f4e6f7420617574686f72697a656420746f2076696577207265636f72647300006000830152602082019050919050565b60006123c2601a83612ab1565b91507f4e6f2061637469766520656d657267656e6379206163636573730000000000006000830152602082019050919050565b6000612402601783612ab1565b91507f43616c6c6572206973206e6f7420612070617469656e740000000000000000006000830152602082019050919050565b6000612442602083612ab1565b91507f456d657267656e63792061636365737320616c7265616479206772616e7465646000830152602082019050919050565b6000612482601783612ab1565b91507f41646472657373206973206e6f74206120646f63746f720000000000000000006000830152602082019050919050565b60006124c2601783612ac2565b91507f416363657373436f6e74726f6c3a206163636f756e74200000000000000000006000830152601782019050919050565b6000612502601f83612ab1565b91507f5265656e7472616e637947756172643a207265656e7472616e742063616c6c006000830152602082019050919050565b6000612542601183612ac2565b91507f206973206d697373696e6720726f6c65200000000000000000000000000000006000830152601182019050919050565b6000612582600e83612ab1565b91507f4e6f7420617574686f72697a65640000000000000000000000000000000000006000830152602082019050919050565b60006125c2602f83612ab1565b91507f416363657373436f6e74726f6c3a2063616e206f6e6c792072656e6f756e636560008301527f20726f6c657320666f722073656c6600000000000000000000000000000000006020830152604082019050919050565b608082016000820151612631600085018261207b565b5060208201516126446020850182612707565b5060408201516126576040850182612707565b50606082015161266a60608501826120ff565b50505050565b600060c083016000830151848203600086015261268d828261212c565b915050602083015184820360208601526126a7828261212c565b91505060408301516126bc6040860182612707565b50606083015184820360608601526126d4828261212c565b91505060808301516126e9608086018261207b565b5060a08301516126fc60a08601826120ff565b508091505092915050565b61271081612bf1565b82525050565b61271f81612bf1565b82525050565b6000612731828461219e565b915081905092915050565b6000612747826124b5565b9150612753828561219e565b915061275e82612535565b915061276a828461219e565b91508190509392505050565b60006020820190508181036000830152612790818461208a565b905092915050565b60006020820190506127ad600083018461210e565b92915050565b60006020820190506127c8600083018461211d565b92915050565b600060208201905081810360008301526127e88184612165565b905092915050565b6000604082019050818103600083015261280a8185612165565b90506128196020830184612716565b9392505050565b60006020820190508181036000830152612839816121cf565b9050919050565b600060208201905081810360008301526128598161220f565b9050919050565b600060208201905081810360008301526128798161224f565b9050919050565b60006020820190508181036000830152612899816122b5565b9050919050565b600060208201905081810360008301526128b9816122f5565b9050919050565b600060208201905081810360008301526128d981612335565b9050919050565b600060208201905081810360008301526128f981612375565b9050919050565b60006020820190508181036000830152612919816123b5565b9050919050565b60006020820190508181036000830152612939816123f5565b9050919050565b6000602082019050818103600083015261295981612435565b9050919050565b6000602082019050818103600083015261297981612475565b9050919050565b60006020820190508181036000830152612999816124f5565b9050919050565b600060208201905081810360008301526129b981612575565b9050919050565b600060208201905081810360008301526129d9816125b5565b9050919050565b60006080820190506129f5600083018461261b565b92915050565b6000604051905081810181811067ffffffffffffffff82111715612a2257612a21612cf7565b5b8060405250919050565b600067ffffffffffffffff821115612a4757612a46612cf7565b5b601f19601f8301169050602081019050919050565b6000819050602082019050919050565b600081519050919050565b600081519050919050565b6000602082019050919050565b600082825260208201905092915050565b600082825260208201905092915050565b600082825260208201905092915050565b600081905092915050565b6000612ad882612bf1565b9150612ae383612bf1565b9250827fffffffffffffffffffffffffffffffffffffffffffffffffffffffffffffffff03821115612b1857612b17612c99565b5b828201905092915050565b6000612b2e82612bf1565b9150612b3983612bf1565b9250817fffffffffffffffffffffffffffffffffffffffffffffffffffffffffffffffff0483118215151615612b7257612b71612c99565b5b828202905092915050565b6000612b8882612bd1565b9050919050565b60008115159050919050565b6000819050919050565b60007fffffffff0000000000000000000000000000000000000000000000000000000082169050919050565b600073ffffffffffffffffffffffffffffffffffffffff82169050919050565b6000819050919050565b82818337600083830152505050565b60005b83811015612c28578082015181840152602081019050612c0d565b83811115612c37576000848401525b50505050565b6000612c4882612bf1565b91506000821415612c5c57612c5b612c99565b5b600182039050919050565b60006002820490506001821680612c7f57607f821691505b60208210811415612c9357612c92612cc8565b5b50919050565b7f4e487b7100000000000000000000000000000000000000000000000000000000600052601160045260246000fd5b7f4e487b7100000000000000000000000000000000000000000000000000000000600052602260045260246000fd5b7f4e487b7100000000000000000000000000000000000000000000000000000000600052604160045260246000fd5b6000601f19601f8301169050919050565b612d4081612b7d565b8114612d4b57600080fd5b50565b612d5781612b8f565b8114612d6257600080fd5b50565b612d6e81612b9b565b8114612d7957600080fd5b50565b612d8581612ba5565b8114612d9057600080fd5b5056fea264697066735822122086cc2fb7563e9b5ed87c13517ffe6bd10a5381be732771f0068036dde3abaf0d64736f6c63430008000033",
  "immutableReferences": {},
  "source": "// SPDX-License-Identifier: MIT\npragma solidity ^0.8.0;\n\nimport \"@openzeppelin/contracts/access/AccessControl.sol\";\nimport \"@openzeppelin/contracts/security/ReentrancyGuard.sol\";\n\ncontract HealthRecords is AccessControl, ReentrancyGuard {\n    bytes32 public constant PATIENT_ROLE = keccak256(\"PATIENT_ROLE\");\n    bytes32 public constant DOCTOR_ROLE = keccak256(\"DOCTOR_ROLE\");\n    bytes32 public constant HOSPITAL_ROLE = keccak256(\"HOSPITAL_ROLE\");\n    \n    struct Record {\n        string fileHash;\n        string recordType;\n        uint256 timestamp;\n        string aadhaarNumber;\n        address creator;\n        bool isEmergencyAccessible;\n    }\n    \n    struct EmergencyAccess {\n        address hospital;\n        uint256 grantedAt;\n        uint256 expiresAt;\n        bool isActive;\n    }\n    \n    mapping(string => Record[]) private patientRecords;\n    mapping(string => mapping(address => bool)) private doctorAccess;\n    mapping(string => EmergencyAccess) private emergencyAccess;\n    \n    event RecordAdded(string indexed aadhaarNumber, string fileHash, uint256 timestamp);\n    event AccessGranted(string indexed aadhaarNumber, address indexed doctor);\n    event AccessRevoked(string indexed aadhaarNumber, address indexed doctor);\n    event EmergencyAccessGranted(string indexed aadhaarNumber, address indexed hospital);\n    event EmergencyAccessRevoked(string indexed aadhaarNumber);\n    \n    constructor() {\n        _setupRole(DEFAULT_ADMIN_ROLE, msg.sender);\n    }\n    \n    modifier onlyPatient(string memory aadhaarNumber) {\n        require(hasRole(PATIENT_ROLE, msg.sender), \"Caller is not a patient\");\n        _;\n    }\n    \n    modifier onlyDoctor() {\n        require(hasRole(DOCTOR_ROLE, msg.sender), \"Caller is not a doctor\");\n        _;\n    }\n    \n    modifier onlyHospital() {\n        require(hasRole(HOSPITAL_ROLE, msg.sender), \"Caller is not a hospital\");\n        _;\n    }\n    \n    function addRecord(\n        string memory _aadhaarNumber,\n        string memory _fileHash,\n        string memory _recordType,\n        bool _isEmergencyAccessible\n    ) public onlyDoctor nonReentrant {\n        require(doctorAccess[_aadhaarNumber][msg.sender], \"Doctor does not have access\");\n        \n        Record memory newRecord = Record({\n            fileHash: _fileHash,\n            recordType: _recordType,\n            timestamp: block.timestamp,\n            aadhaarNumber: _aadhaarNumber,\n            creator: msg.sender,\n            isEmergencyAccessible: _isEmergencyAccessible\n        });\n        \n        patientRecords[_aadhaarNumber].push(newRecord);\n        emit RecordAdded(_aadhaarNumber, _fileHash, block.timestamp);\n    }\n\n    function grantAccess(string memory _aadhaarNumber, address _doctor) \n        public \n        onlyPatient(_aadhaarNumber)\n    {\n        require(!doctorAccess[_aadhaarNumber][_doctor], \"Doctor already has access\");\n        require(hasRole(DOCTOR_ROLE, _doctor), \"Address is not a doctor\");\n        \n        doctorAccess[_aadhaarNumber][_doctor] = true;\n        emit AccessGranted(_aadhaarNumber, _doctor);\n    }\n    \n    function revokeAccess(string memory _aadhaarNumber, address _doctor) \n        public \n        onlyPatient(_aadhaarNumber)\n    {\n        require(doctorAccess[_aadhaarNumber][_doctor], \"Doctor does not have access\");\n        \n        doctorAccess[_aadhaarNumber][_doctor] = false;\n        emit AccessRevoked(_aadhaarNumber, _doctor);\n    }\n    \n    function grantEmergencyAccess(string memory _aadhaarNumber) \n        public \n        onlyHospital \n        nonReentrant\n    {\n        require(!emergencyAccess[_aadhaarNumber].isActive, \"Emergency access already granted\");\n        \n        emergencyAccess[_aadhaarNumber] = EmergencyAccess({\n            hospital: msg.sender,\n            grantedAt: block.timestamp,\n            expiresAt: block.timestamp + 24 hours,\n            isActive: true\n        });\n        \n        emit EmergencyAccessGranted(_aadhaarNumber, msg.sender);\n    }\n    \n    function revokeEmergencyAccess(string memory _aadhaarNumber) \n        public \n        onlyHospital\n    {\n        require(emergencyAccess[_aadhaarNumber].hospital == msg.sender, \"Not authorized\");\n        require(emergencyAccess[_aadhaarNumber].isActive, \"No active emergency access\");\n        \n        emergencyAccess[_aadhaarNumber].isActive = false;\n        emit EmergencyAccessRevoked(_aadhaarNumber);\n    }\n    \n    function getRecords(string memory _aadhaarNumber) \n        public \n        view \n        returns (Record[] memory) \n    {\n        require(\n            hasRole(PATIENT_ROLE, msg.sender) ||\n            doctorAccess[_aadhaarNumber][msg.sender] ||\n            (hasRole(HOSPITAL_ROLE, msg.sender) && \n             emergencyAccess[_aadhaarNumber].isActive &&\n             emergencyAccess[_aadhaarNumber].hospital == msg.sender &&\n             emergencyAccess[_aadhaarNumber].expiresAt > block.timestamp),\n            \"Not authorized to view records\"\n        );\n        \n        return patientRecords[_aadhaarNumber];\n    }\n    \n    function getEmergencyAccessDetails(string memory _aadhaarNumber) \n        public \n        view \n        returns (EmergencyAccess memory) \n    {\n        require(\n            hasRole(PATIENT_ROLE, msg.sender) ||\n            hasRole(HOSPITAL_ROLE, msg.sender),\n            \"Not authorized to view emergency access details\"\n        );\n        \n        return emergencyAccess[_aadhaarNumber];\n    }\n}",
  "sourcePath": "C:\\Users\\Sai Divya\\Desktop\\SAI\\Healthcare_blockchain\\BACKEND\\contracts\\HealthRecords.sol",
  "compiler": {
    "name": "solc",
    "version": "0.8.0+commit.c7dfd78e.Emscripten.clang"
  },
  "schemaVersion": "3.4.16",
  "updatedAt": "2025-05-24T01:11:17.932Z",
  "devdoc": {
    "kind": "dev",
    "methods": {
      "getRoleAdmin(bytes32)": {
        "details": "Returns the admin role that controls `role`. See {grantRole} and {revokeRole}. To change a role's admin, use {_setRoleAdmin}."
      },
      "grantRole(bytes32,address)": {
        "details": "Grants `role` to `account`. If `account` had not been already granted `role`, emits a {RoleGranted} event. Requirements: - the caller must have ``role``'s admin role. May emit a {RoleGranted} event."
      },
      "hasRole(bytes32,address)": {
        "details": "Returns `true` if `account` has been granted `role`."
      },
      "renounceRole(bytes32,address)": {
        "details": "Revokes `role` from the calling account. Roles are often managed via {grantRole} and {revokeRole}: this function's purpose is to provide a mechanism for accounts to lose their privileges if they are compromised (such as when a trusted device is misplaced). If the calling account had been revoked `role`, emits a {RoleRevoked} event. Requirements: - the caller must be `account`. May emit a {RoleRevoked} event."
      },
      "revokeRole(bytes32,address)": {
        "details": "Revokes `role` from `account`. If `account` had been granted `role`, emits a {RoleRevoked} event. Requirements: - the caller must have ``role``'s admin role. May emit a {RoleRevoked} event."
      },
      "supportsInterface(bytes4)": {
        "details": "See {IERC165-supportsInterface}."
      }
    },
    "version": 1
  },
  "userdoc": {
    "kind": "user",
    "methods": {},
    "version": 1
  }
}