{
  "contractName": "RecordsStorage",
  "abi": [
    {
      "inputs": [
        {
          "internalType": "address",
          "name": "",
          "type": "address"
        },
        {
          "internalType": "uint256",
          "name": "",
          "type": "uint256"
        }
      ],
      "name": "records",
      "outputs": [
        {
          "internalType": "string",
          "name": "ipfsHash",
          "type": "string"
        },
        {
          "internalType": "address",
          "name": "uploader",
          "type": "address"
        }
      ],
      "stateMutability": "view",
      "type": "function",
      "constant": true
    },
    {
      "inputs": [
        {
          "internalType": "string",
          "name": "_ipfsHash",
          "type": "string"
        }
      ],
      "name": "storeRecord",
      "outputs": [],
      "stateMutability": "nonpayable",
      "type": "function"
    },
    {
      "inputs": [
        {
          "internalType": "address",
          "name": "_user",
          "type": "address"
        }
      ],
      "name": "getRecords",
      "outputs": [
        {
          "components": [
            {
              "internalType": "string",
              "name": "ipfsHash",
              "type": "string"
            },
            {
              "internalType": "address",
              "name": "uploader",
              "type": "address"
            }
          ],
          "internalType": "struct RecordsStorage.Record[]",
          "name": "",
          "type": "tuple[]"
        }
      ],
      "stateMutability": "view",
      "type": "function",
      "constant": true
    }
  ],
  "bytecode": "0x608060405234801561001057600080fd5b506109f9806100206000396000f3fe608060405234801561001057600080fd5b50600436106100415760003560e01c806376d91d081461004657806382a6c0ac14610062578063a0076e8414610093575b600080fd5b610060600480360381019061005b91906105c6565b6100c3565b005b61007c6004803603810190610077919061058a565b6101be565b60405161008a92919061077f565b60405180910390f35b6100ad60048036038101906100a89190610561565b6102a7565b6040516100ba919061075d565b60405180910390f35b6000803373ffffffffffffffffffffffffffffffffffffffff1673ffffffffffffffffffffffffffffffffffffffff16815260200190815260200160002060405180604001604052808381526020013373ffffffffffffffffffffffffffffffffffffffff168152509080600181540180825580915050600190039060005260206000209060020201600090919091909150600082015181600001908051906020019061017192919061042c565b5060208201518160010160006101000a81548173ffffffffffffffffffffffffffffffffffffffff021916908373ffffffffffffffffffffffffffffffffffffffff160217905550505050565b600060205281600052604060002081815481106101da57600080fd5b9060005260206000209060020201600091509150508060000180546101fe906108f4565b80601f016020809104026020016040519081016040528092919081815260200182805461022a906108f4565b80156102775780601f1061024c57610100808354040283529160200191610277565b820191906000526020600020905b81548152906001019060200180831161025a57829003601f168201915b5050505050908060010160009054906101000a900473ffffffffffffffffffffffffffffffffffffffff16905082565b60606000808373ffffffffffffffffffffffffffffffffffffffff1673ffffffffffffffffffffffffffffffffffffffff168152602001908152602001600020805480602002602001604051908101604052809291908181526020016000905b82821015610421578382906000526020600020906002020160405180604001604052908160008201805461033a906108f4565b80601f0160208091040260200160405190810160405280929190818152602001828054610366906108f4565b80156103b35780601f10610388576101008083540402835291602001916103b3565b820191906000526020600020905b81548152906001019060200180831161039657829003601f168201915b505050505081526020016001820160009054906101000a900473ffffffffffffffffffffffffffffffffffffffff1673ffffffffffffffffffffffffffffffffffffffff1673ffffffffffffffffffffffffffffffffffffffff168152505081526020019060010190610307565b505050509050919050565b828054610438906108f4565b90600052602060002090601f01602090048101928261045a57600085556104a1565b82601f1061047357805160ff19168380011785556104a1565b828001600101855582156104a1579182015b828111156104a0578251825591602001919060010190610485565b5b5090506104ae91906104b2565b5090565b5b808211156104cb5760008160009055506001016104b3565b5090565b60006104e26104dd846107e0565b6107af565b9050828152602081018484840111156104fa57600080fd5b6105058482856108b2565b509392505050565b60008135905061051c81610995565b92915050565b600082601f83011261053357600080fd5b81356105438482602086016104cf565b91505092915050565b60008135905061055b816109ac565b92915050565b60006020828403121561057357600080fd5b60006105818482850161050d565b91505092915050565b6000806040838503121561059d57600080fd5b60006105ab8582860161050d565b92505060206105bc8582860161054c565b9150509250929050565b6000602082840312156105d857600080fd5b600082013567ffffffffffffffff8111156105f257600080fd5b6105fe84828501610522565b91505092915050565b60006106138383610720565b905092915050565b61062481610876565b82525050565b61063381610876565b82525050565b600061064482610820565b61064e8185610843565b93508360208202850161066085610810565b8060005b8581101561069c578484038952815161067d8582610607565b945061068883610836565b925060208a01995050600181019050610664565b50829750879550505050505092915050565b60006106b98261082b565b6106c38185610854565b93506106d38185602086016108c1565b6106dc81610984565b840191505092915050565b60006106f28261082b565b6106fc8185610865565b935061070c8185602086016108c1565b61071581610984565b840191505092915050565b6000604083016000830151848203600086015261073d82826106ae565b9150506020830151610752602086018261061b565b508091505092915050565b600060208201905081810360008301526107778184610639565b905092915050565b6000604082019050818103600083015261079981856106e7565b90506107a8602083018461062a565b9392505050565b6000604051905081810181811067ffffffffffffffff821117156107d6576107d5610955565b5b8060405250919050565b600067ffffffffffffffff8211156107fb576107fa610955565b5b601f19601f8301169050602081019050919050565b6000819050602082019050919050565b600081519050919050565b600081519050919050565b6000602082019050919050565b600082825260208201905092915050565b600082825260208201905092915050565b600082825260208201905092915050565b600061088182610888565b9050919050565b600073ffffffffffffffffffffffffffffffffffffffff82169050919050565b6000819050919050565b82818337600083830152505050565b60005b838110156108df5780820151818401526020810190506108c4565b838111156108ee576000848401525b50505050565b6000600282049050600182168061090c57607f821691505b602082108114156109205761091f610926565b5b50919050565b7f4e487b7100000000000000000000000000000000000000000000000000000000600052602260045260246000fd5b7f4e487b7100000000000000000000000000000000000000000000000000000000600052604160045260246000fd5b6000601f19601f8301169050919050565b61099e81610876565b81146109a957600080fd5b50565b6109b5816108a8565b81146109c057600080fd5b5056fea2646970667358221220ee04a48b695cb155984310e1659b36f85a4a8fee6ef459fe0a293ed02e60d81b64736f6c63430008000033",
  "immutableReferences": {},
  "source": "pragma solidity ^0.8.0;\r\n\r\ncontract RecordsStorage {\r\n    struct Record {\r\n        string ipfsHash;\r\n        address uploader;\r\n    }\r\n\r\n    mapping(address => Record[]) public records;\r\n\r\n    function storeRecord(string memory _ipfsHash) public {\r\n        records[msg.sender].push(Record(_ipfsHash, msg.sender));\r\n    }\r\n\r\n    function getRecords(address _user) public view returns (Record[] memory) {\r\n        return records[_user];\r\n    }\r\n}",
  "sourcePath": "C:\\Users\\Sai Divya\\Desktop\\SAI\\Healthcare_blockchain\\BACKEND\\contracts\\RecordsStorage.sol",
  "compiler": {
    "name": "solc",
    "version": "0.8.0+commit.c7dfd78e.Emscripten.clang"
  },
  "schemaVersion": "3.4.16",
  "updatedAt": "2025-05-24T01:11:22.970Z",
  "networkType": "ethereum",
  "devdoc": {
    "kind": "dev",
    "methods": {},
    "version": 1
  },
  "userdoc": {
    "kind": "user",
    "methods": {},
    "version": 1
  }
}